{
  "contractName": "FileStorage",
  "abi": [
    {
      "inputs": [],
      "stateMutability": "nonpayable",
      "type": "constructor"
    },
    {
      "inputs": [],
      "name": "owner",
      "outputs": [
        {
          "internalType": "address",
          "name": "",
          "type": "address"
        }
      ],
      "stateMutability": "view",
      "type": "function"
    },
    {
      "inputs": [],
      "name": "storedFile",
      "outputs": [
        {
          "internalType": "string",
          "name": "",
          "type": "string"
        }
      ],
      "stateMutability": "view",
      "type": "function"
    },
    {
      "inputs": [
        {
          "internalType": "string",
          "name": "_fileContent",
          "type": "string"
        }
      ],
      "name": "sendFile",
      "outputs": [],
      "stateMutability": "nonpayable",
      "type": "function"
    },
    {
      "inputs": [],
      "name": "receiveFile",
      "outputs": [
        {
          "internalType": "string",
          "name": "",
          "type": "string"
        }
      ],
      "stateMutability": "view",
      "type": "function"
    }
  ],
  "bytecode": "0x608060405234801561001057600080fd5b50336000806101000a81548173ffffffffffffffffffffffffffffffffffffffff021916908373ffffffffffffffffffffffffffffffffffffffff1602179055506107dc806100606000396000f3fe608060405234801561001057600080fd5b506004361061004c5760003560e01c806302118710146100515780637d40ab9e1461006f5780638da5cb5b1461008b578063e337113e146100a9575b600080fd5b6100596100c7565b60405161006691906102ae565b60405180910390f35b61008960048036038101906100849190610419565b610159565b005b61009361016c565b6040516100a091906104a3565b60405180910390f35b6100b1610190565b6040516100be91906102ae565b60405180910390f35b6060600180546100d6906104ed565b80601f0160208091040260200160405190810160405280929190818152602001828054610102906104ed565b801561014f5780601f106101245761010080835404028352916020019161014f565b820191906000526020600020905b81548152906001019060200180831161013257829003601f168201915b5050505050905090565b806001908161016891906106d4565b5050565b60008054906101000a900473ffffffffffffffffffffffffffffffffffffffff1681565b6001805461019d906104ed565b80601f01602080910402602001604051908101604052809291908181526020018280546101c9906104ed565b80156102165780601f106101eb57610100808354040283529160200191610216565b820191906000526020600020905b8154815290600101906020018083116101f957829003601f168201915b505050505081565b600081519050919050565b600082825260208201905092915050565b60005b8381101561025857808201518184015260208101905061023d565b60008484015250505050565b6000601f19601f8301169050919050565b60006102808261021e565b61028a8185610229565b935061029a81856020860161023a565b6102a381610264565b840191505092915050565b600060208201905081810360008301526102c88184610275565b905092915050565b6000604051905090565b600080fd5b600080fd5b600080fd5b600080fd5b7f4e487b7100000000000000000000000000000000000000000000000000000000600052604160045260246000fd5b61032682610264565b810181811067ffffffffffffffff82111715610345576103446102ee565b5b80604052505050565b60006103586102d0565b9050610364828261031d565b919050565b600067ffffffffffffffff821115610384576103836102ee565b5b61038d82610264565b9050602081019050919050565b82818337600083830152505050565b60006103bc6103b784610369565b61034e565b9050828152602081018484840111156103d8576103d76102e9565b5b6103e384828561039a565b509392505050565b600082601f830112610400576103ff6102e4565b5b81356104108482602086016103a9565b91505092915050565b60006020828403121561042f5761042e6102da565b5b600082013567ffffffffffffffff81111561044d5761044c6102df565b5b610459848285016103eb565b91505092915050565b600073ffffffffffffffffffffffffffffffffffffffff82169050919050565b600061048d82610462565b9050919050565b61049d81610482565b82525050565b60006020820190506104b86000830184610494565b92915050565b7f4e487b7100000000000000000000000000000000000000000000000000000000600052602260045260246000fd5b6000600282049050600182168061050557607f821691505b602082108103610518576105176104be565b5b50919050565b60008190508160005260206000209050919050565b60006020601f8301049050919050565b600082821b905092915050565b6000600883026105807fffffffffffffffffffffffffffffffffffffffffffffffffffffffffffffffff82610543565b61058a8683610543565b95508019841693508086168417925050509392505050565b6000819050919050565b6000819050919050565b60006105d16105cc6105c7846105a2565b6105ac565b6105a2565b9050919050565b6000819050919050565b6105eb836105b6565b6105ff6105f7826105d8565b848454610550565b825550505050565b600090565b610614610607565b61061f8184846105e2565b505050565b5b818110156106435761063860008261060c565b600181019050610625565b5050565b601f821115610688576106598161051e565b61066284610533565b81016020851015610671578190505b61068561067d85610533565b830182610624565b50505b505050565b600082821c905092915050565b60006106ab6000198460080261068d565b1980831691505092915050565b60006106c4838361069a565b9150826002028217905092915050565b6106dd8261021e565b67ffffffffffffffff8111156106f6576106f56102ee565b5b61070082546104ed565b61070b828285610647565b600060209050601f83116001811461073e576000841561072c578287015190505b61073685826106b8565b86555061079e565b601f19841661074c8661051e565b60005b828110156107745784890151825560018201915060208501945060208101905061074f565b86831015610791578489015161078d601f89168261069a565b8355505b6001600288020188555050505b50505050505056fea2646970667358221220d4a291fd043181cd961585c4560fe2557d6c5c338278b68ccb7633b8b014766164736f6c63430008130033",
  "immutableReferences": {},
  "source": "// SPDX-License-Identifier: MIT\npragma solidity >=0.4.22 <0.9.0;\n\ncontract FileStorage {\n    address public owner;\n    string public storedFile;\n\n    constructor() {\n        owner = msg.sender;\n    }\n\n    modifier restricted() {\n        require(msg.sender == owner, \"This function is restricted to the contract's owner\");\n        _;\n    }\n\n    function sendFile(string memory _fileContent) public {\n        storedFile = _fileContent;\n    }\n\n    function receiveFile() public view returns (string memory) {\n        return storedFile;\n    }\n}\n",
  "sourcePath": "/Users/likhithgs/Desktop/BC-AAT/contracts/Migrations.sol",
  "compiler": {
    "name": "solc",
    "version": "0.8.19+commit.7dd6d404.Emscripten.clang"
  },
  "schemaVersion": "3.4.16",
  "updatedAt": "2024-06-02T12:19:15.283Z",
  "devdoc": {
    "kind": "dev",
    "methods": {},
    "version": 1
  },
  "userdoc": {
    "kind": "user",
    "methods": {},
    "version": 1
  }
}